S00C00006C6162312E73726563B8
S11300000C9434000C9446000C9446000C94460066
S11300100C9446000C9446000C9446000C94460044
S11300200C9446000C9446000C9446000C94460034
S11300300C9446000C9446000C9446000C94460024
S11300400C9446000C9446000C9448000C94460012
S11300500C9446000C9446000C9446000C94460004
S11300600C9446000C94460011241FBECFEFD8E038
S1130070DEBFCDBF21E0A0E0B1E001C01D92A230FF
S1130080B207E1F70E947B000C9491000C940000ED
S11300901F920F920FB60F9211248F939F9380910A
S11300A0C600823381F48091000190910101892B73
S11300B051F485B1806285B981E090E090930101AB
S11300C08093000111C08091C600823349F0809171
S11300D0000190910101019719F485B18F7D85B9D3
S11300E010920101109200019F918F910F900FBE09
S11300F00F901F901895789487E690E09093C50030
S11301008093C400E1ECF0E080818061808386E02C
S11301108093C20080818068808380E284B915B8AE
S1090120FFCFF894FFCFAD
S9030000FC
